{
  "_format": "hh-sol-artifact-1",
  "contractName": "Staking",
  "sourceName": "contracts/Staking.sol",
  "abi": [
    {
      "inputs": [
        {
          "internalType": "address",
          "name": "_NFTItem",
          "type": "address"
        }
      ],
      "stateMutability": "nonpayable",
      "type": "constructor"
    },
    {
      "anonymous": false,
      "inputs": [
        {
          "indexed": true,
          "internalType": "address",
          "name": "owner",
          "type": "address"
        },
        {
          "indexed": false,
          "internalType": "uint256",
          "name": "id",
          "type": "uint256"
        },
        {
          "indexed": false,
          "internalType": "uint256",
          "name": "time",
          "type": "uint256"
        }
      ],
      "name": "Stake",
      "type": "event"
    },
    {
      "anonymous": false,
      "inputs": [
        {
          "indexed": true,
          "internalType": "address",
          "name": "owner",
          "type": "address"
        },
        {
          "indexed": false,
          "internalType": "uint256",
          "name": "id",
          "type": "uint256"
        },
        {
          "indexed": false,
          "internalType": "uint256",
          "name": "time",
          "type": "uint256"
        },
        {
          "indexed": false,
          "internalType": "uint256",
          "name": "rewardTokens",
          "type": "uint256"
        }
      ],
      "name": "UnStake",
      "type": "event"
    },
    {
      "inputs": [],
      "name": "NFTItem",
      "outputs": [
        {
          "internalType": "contract IERC721",
          "name": "",
          "type": "address"
        }
      ],
      "stateMutability": "view",
      "type": "function"
    },
    {
      "inputs": [
        {
          "internalType": "address",
          "name": "",
          "type": "address"
        },
        {
          "internalType": "address",
          "name": "",
          "type": "address"
        },
        {
          "internalType": "uint256",
          "name": "",
          "type": "uint256"
        },
        {
          "internalType": "bytes",
          "name": "",
          "type": "bytes"
        }
      ],
      "name": "onERC721Received",
      "outputs": [
        {
          "internalType": "bytes4",
          "name": "",
          "type": "bytes4"
        }
      ],
      "stateMutability": "nonpayable",
      "type": "function"
    },
    {
      "inputs": [],
      "name": "reward",
      "outputs": [
        {
          "internalType": "uint256",
          "name": "",
          "type": "uint256"
        }
      ],
      "stateMutability": "view",
      "type": "function"
    },
    {
      "inputs": [
        {
          "internalType": "uint256",
          "name": "_tokenId",
          "type": "uint256"
        }
      ],
      "name": "stakeNFT",
      "outputs": [],
      "stateMutability": "nonpayable",
      "type": "function"
    },
    {
      "inputs": [
        {
          "internalType": "address",
          "name": "",
          "type": "address"
        }
      ],
      "name": "stakes",
      "outputs": [
        {
          "internalType": "uint256",
          "name": "tokenId",
          "type": "uint256"
        },
        {
          "internalType": "uint256",
          "name": "timestamp",
          "type": "uint256"
        }
      ],
      "stateMutability": "view",
      "type": "function"
    },
    {
      "inputs": [
        {
          "internalType": "uint256",
          "name": "_tokenId",
          "type": "uint256"
        }
      ],
      "name": "unStakeNFT",
      "outputs": [],
      "stateMutability": "nonpayable",
      "type": "function"
    }
  ],
  "bytecode": "0x60806040526228206f6001556301e1853e60025534801561001f57600080fd5b50604051610d74380380610d748339818101604052810190610041919061009c565b806000806101000a81548173ffffffffffffffffffffffffffffffffffffffff021916908373ffffffffffffffffffffffffffffffffffffffff1602179055505061010e565b600081519050610096816100f7565b92915050565b6000602082840312156100ae57600080fd5b60006100bc84828501610087565b91505092915050565b60006100d0826100d7565b9050919050565b600073ffffffffffffffffffffffffffffffffffffffff82169050919050565b610100816100c5565b811461010b57600080fd5b50565b610c578061011d6000396000f3fe608060405234801561001057600080fd5b50600436106100625760003560e01c8063150b7a021461006757806316934fc414610097578063228cb733146100c85780636eb604e0146100e6578063918f9f1014610102578063a679c2ff14610120575b600080fd5b610081600480360381019061007c919061065d565b61013c565b60405161008e91906107fe565b60405180910390f35b6100b160048036038101906100ac9190610634565b610150565b6040516100bf92919061088f565b60405180910390f35b6100d0610174565b6040516100dd9190610874565b60405180910390f35b61010060048036038101906100fb91906106d8565b61017a565b005b61010a6103b3565b6040516101179190610819565b60405180910390f35b61013a600480360381019061013591906106d8565b6103d7565b005b600063150b7a0260e01b9050949350505050565b60046020528060005260406000206000915090508060000154908060010154905082565b60035481565b600160008054906101000a900473ffffffffffffffffffffffffffffffffffffffff1673ffffffffffffffffffffffffffffffffffffffff166370a08231336040518263ffffffff1660e01b81526004016101d591906107ac565b60206040518083038186803b1580156101ed57600080fd5b505afa158015610201573d6000803e3d6000fd5b505050506040513d601f19601f820116820180604052508101906102259190610701565b1015610266576040517f08c379a000000000000000000000000000000000000000000000000000000000815260040161025d90610854565b60405180910390fd5b604051806040016040528082815260200142815250600460003373ffffffffffffffffffffffffffffffffffffffff1673ffffffffffffffffffffffffffffffffffffffff168152602001908152602001600020600082015181600001556020820151816001015590505060008054906101000a900473ffffffffffffffffffffffffffffffffffffffff1673ffffffffffffffffffffffffffffffffffffffff166342842e0e3330846040518463ffffffff1660e01b815260040161032e939291906107c7565b600060405180830381600087803b15801561034857600080fd5b505af115801561035c573d6000803e3d6000fd5b505050503373ffffffffffffffffffffffffffffffffffffffff167f5af417134f72a9d41143ace85b0a26dce6f550f894f2cbc1eeee8810603d91b682426040516103a892919061088f565b60405180910390a250565b60008054906101000a900473ffffffffffffffffffffffffffffffffffffffff1681565b62278d00600460003373ffffffffffffffffffffffffffffffffffffffff1673ffffffffffffffffffffffffffffffffffffffff168152602001908152602001600020600101546104289190610956565b42101561046a576040517f08c379a000000000000000000000000000000000000000000000000000000000815260040161046190610834565b60405180910390fd5b60008054906101000a900473ffffffffffffffffffffffffffffffffffffffff1673ffffffffffffffffffffffffffffffffffffffff166342842e0e3033846040518463ffffffff1660e01b81526004016104c7939291906107c7565b600060405180830381600087803b1580156104e157600080fd5b505af11580156104f5573d6000803e3d6000fd5b5050505061050161055e565b6003819055503373ffffffffffffffffffffffffffffffffffffffff167fdb5446d7bffdeb0b5301ec00f352321da31ef3ee552eca5a1a8c9d59b9ef68808242600354604051610553939291906108b8565b60405180910390a250565b60006002546064600154600f61057491906109dd565b61057e91906109ac565b61058891906109dd565b905090565b60006105a061059b84610914565b6108ef565b9050828152602081018484840111156105b857600080fd5b6105c3848285610ac3565b509392505050565b6000813590506105da81610bf3565b92915050565b600082601f8301126105f157600080fd5b813561060184826020860161058d565b91505092915050565b60008135905061061981610c0a565b92915050565b60008151905061062e81610c0a565b92915050565b60006020828403121561064657600080fd5b6000610654848285016105cb565b91505092915050565b6000806000806080858703121561067357600080fd5b6000610681878288016105cb565b9450506020610692878288016105cb565b93505060406106a38782880161060a565b925050606085013567ffffffffffffffff8111156106c057600080fd5b6106cc878288016105e0565b91505092959194509250565b6000602082840312156106ea57600080fd5b60006106f88482850161060a565b91505092915050565b60006020828403121561071357600080fd5b60006107218482850161061f565b91505092915050565b61073381610a37565b82525050565b61074281610a49565b82525050565b61075181610a9f565b82525050565b6000610764601d83610945565b915061076f82610ba1565b602082019050919050565b6000610787601883610945565b915061079282610bca565b602082019050919050565b6107a681610a95565b82525050565b60006020820190506107c1600083018461072a565b92915050565b60006060820190506107dc600083018661072a565b6107e9602083018561072a565b6107f6604083018461079d565b949350505050565b60006020820190506108136000830184610739565b92915050565b600060208201905061082e6000830184610748565b92915050565b6000602082019050818103600083015261084d81610757565b9050919050565b6000602082019050818103600083015261086d8161077a565b9050919050565b6000602082019050610889600083018461079d565b92915050565b60006040820190506108a4600083018561079d565b6108b1602083018461079d565b9392505050565b60006060820190506108cd600083018661079d565b6108da602083018561079d565b6108e7604083018461079d565b949350505050565b60006108f961090a565b90506109058282610ad2565b919050565b6000604051905090565b600067ffffffffffffffff82111561092f5761092e610b61565b5b61093882610b90565b9050602081019050919050565b600082825260208201905092915050565b600061096182610a95565b915061096c83610a95565b9250827fffffffffffffffffffffffffffffffffffffffffffffffffffffffffffffffff038211156109a1576109a0610b03565b5b828201905092915050565b60006109b782610a95565b91506109c283610a95565b9250826109d2576109d1610b32565b5b828204905092915050565b60006109e882610a95565b91506109f383610a95565b9250817fffffffffffffffffffffffffffffffffffffffffffffffffffffffffffffffff0483118215151615610a2c57610a2b610b03565b5b828202905092915050565b6000610a4282610a75565b9050919050565b60007fffffffff0000000000000000000000000000000000000000000000000000000082169050919050565b600073ffffffffffffffffffffffffffffffffffffffff82169050919050565b6000819050919050565b6000610aaa82610ab1565b9050919050565b6000610abc82610a75565b9050919050565b82818337600083830152505050565b610adb82610b90565b810181811067ffffffffffffffff82111715610afa57610af9610b61565b5b80604052505050565b7f4e487b7100000000000000000000000000000000000000000000000000000000600052601160045260246000fd5b7f4e487b7100000000000000000000000000000000000000000000000000000000600052601260045260246000fd5b7f4e487b7100000000000000000000000000000000000000000000000000000000600052604160045260246000fd5b6000601f19601f8301169050919050565b7f43616e6e6f7420756e7374616b65206265666f72652031206d6f6e7468000000600082015250565b7f796f7520646f6e74206861766520656e6f756768204e46540000000000000000600082015250565b610bfc81610a37565b8114610c0757600080fd5b50565b610c1381610a95565b8114610c1e57600080fd5b5056fea264697066735822122019696938ed72f09708abab5138297b0f57a18957c0d209b854f18dbfe0dbeddb64736f6c63430008030033",
  "linkReferences": {},
  "deployedLinkReferences": {}
}